{
    "contractName": "FundMe",
    "abi": [
        {
            "inputs": [
                {
                    "internalType": "address",
                    "name": "priceFeed",
                    "type": "address"
                }
            ],
            "stateMutability": "nonpayable",
            "type": "constructor"
        },
        {
            "inputs": [],
            "name": "FundMe__NotOwner",
            "type": "error"
        },
        {
            "stateMutability": "payable",
            "type": "fallback"
        },
        {
            "inputs": [],
            "name": "MINIMUM_USD",
            "outputs": [
                {
                    "internalType": "uint256",
                    "name": "",
                    "type": "uint256"
                }
            ],
            "stateMutability": "view",
            "type": "function"
        },
        {
            "inputs": [],
            "name": "fund",
            "outputs": [],
            "stateMutability": "payable",
            "type": "function"
        },
        {
            "inputs": [],
            "name": "i_owner",
            "outputs": [
                {
                    "internalType": "address",
                    "name": "",
                    "type": "address"
                }
            ],
            "stateMutability": "view",
            "type": "function"
        },
        {
            "inputs": [],
            "name": "withdraw",
            "outputs": [],
            "stateMutability": "nonpayable",
            "type": "function"
        },
        {
            "stateMutability": "payable",
            "type": "receive"
        }
    ],
    "bytecode": "60a060405234801561001057600080fd5b506040516106b03803806106b083398101604081905261002f91610058565b33608052600280546001600160a01b0319166001600160a01b0392909216919091179055610088565b60006020828403121561006a57600080fd5b81516001600160a01b038116811461008157600080fd5b9392505050565b6080516106006100b06000396000818160b1015281816101cf015261028601526106006000f3fe6080604052600436106100435760003560e01c80633ccfd60b1461005a5780636b69a5921461006f578063b60d428814610052578063dba6335f1461009f57610052565b36610052576100506100eb565b005b6100506100eb565b34801561006657600080fd5b506100506101c4565b34801561007b57600080fd5b5061008c6802b5e3af16b188000081565b6040519081526020015b60405180910390f35b3480156100ab57600080fd5b506100d37f000000000000000000000000000000000000000000000000000000000000000081565b6040516001600160a01b039091168152602001610096565b6002546802b5e3af16b18800009061010d9034906001600160a01b0316610305565b101561015f5760405162461bcd60e51b815260206004820152601860248201527f446964206e6f742073656e6420656e6f75676820455448210000000000000000604482015260640160405180910390fd5b336000908152600160205260408120805434929061017e90849061044e565b9091555050600080546001810182559080527f290decd9548b62a8d60345a988386fc84ba6bc95484008f6362f93160ef3e5630180546001600160a01b03191633179055565b336001600160a01b037f0000000000000000000000000000000000000000000000000000000000000000161461020d5760405163579610db60e01b815260040160405180910390fd5b60005b60005481101561026357600080828154811061022e5761022e610466565b60009182526020808320909101546001600160a01b03168252600190526040812055508061025b8161047c565b915050610210565b506040805160008082526020820192839052905161028192906103be565b5060007f00000000000000000000000000000000000000000000000000000000000000006001600160a01b03164760405160006040518083038185875af1925050503d80600081146102ef576040519150601f19603f3d011682016040523d82523d6000602084013e6102f4565b606091505b505090508061030257600080fd5b50565b6000806103118361033b565b90506000670de0b6b3a76400006103288684610495565b61033291906104b4565b95945050505050565b600080826001600160a01b031663feaf968c6040518163ffffffff1660e01b815260040160a060405180830381865afa15801561037c573d6000803e3d6000fd5b505050506040513d601f19601f820116820180604052508101906103a091906104f5565b505050915050806402540be4006103b79190610545565b9392505050565b828054828255906000526020600020908101928215610413579160200282015b8281111561041357825182546001600160a01b0319166001600160a01b039091161782556020909201916001909101906103de565b5061041f929150610423565b5090565b5b8082111561041f5760008155600101610424565b634e487b7160e01b600052601160045260246000fd5b6000821982111561046157610461610438565b500190565b634e487b7160e01b600052603260045260246000fd5b60006001820161048e5761048e610438565b5060010190565b60008160001904831182151516156104af576104af610438565b500290565b6000826104d157634e487b7160e01b600052601260045260246000fd5b500490565b805169ffffffffffffffffffff811681146104f057600080fd5b919050565b600080600080600060a0868803121561050d57600080fd5b610516866104d6565b9450602086015193506040860151925060608601519150610539608087016104d6565b90509295509295909350565b60006001600160ff1b038184138284138082168684048611161561056b5761056b610438565b600160ff1b600087128281168783058912161561058a5761058a610438565b600087129250878205871284841616156105a6576105a6610438565b878505871281841616156105bc576105bc610438565b50505092909302939250505056fea26469706673582212209bcc8b72e1c85eb944f57dd9c0b85507bdc8e9a4abcc92e4ef8592c3b58a9fe264736f6c634300080f0033",
    "sourcePath": "/home/user/Documents/Learn Blockchain Projects/hardhat-fund-me/contracts/FundMe.sol",
    "compiler": {
        "name": "solc",
        "version": "0.8.15+commit.e14f2714"
    },
    "functionHashes": {
        "MINIMUM_USD()": "6b69a592",
        "fund()": "b60d4288",
        "i_owner()": "dba6335f",
        "withdraw()": "3ccfd60b"
    },
    "gasEstimates": {
        "creation": {
            "codeDepositCost": "307200",
            "executionCost": "infinite",
            "totalCost": "infinite"
        },
        "external": {
            "": "infinite",
            "MINIMUM_USD()": "184",
            "fund()": "infinite",
            "i_owner()": "infinite",
            "withdraw()": "infinite"
        }
    }
}